{
  "contractName": "StrategyInvestment",
  "abi": [
    {
      "constant": true,
      "inputs": [],
      "name": "strategiesCount",
      "outputs": [
        {
          "name": "",
          "type": "uint256"
        }
      ],
      "payable": false,
      "stateMutability": "view",
      "type": "function",
      "signature": "0x2489f7f7"
    },
    {
      "constant": true,
      "inputs": [
        {
          "name": "",
          "type": "address"
        }
      ],
      "name": "users",
      "outputs": [
        {
          "name": "username",
          "type": "bytes32"
        },
        {
          "name": "holdCurrency",
          "type": "int256"
        },
        {
          "name": "strategiesCount",
          "type": "uint256"
        },
        {
          "name": "validSCount",
          "type": "uint256"
        },
        {
          "name": "userAddress",
          "type": "address"
        },
        {
          "name": "isValid",
          "type": "bool"
        }
      ],
      "payable": false,
      "stateMutability": "view",
      "type": "function",
      "signature": "0xa87430ba"
    },
    {
      "constant": true,
      "inputs": [
        {
          "name": "",
          "type": "bytes32"
        }
      ],
      "name": "usersname_to_address",
      "outputs": [
        {
          "name": "",
          "type": "address"
        }
      ],
      "payable": false,
      "stateMutability": "view",
      "type": "function",
      "signature": "0xab19448d"
    },
    {
      "constant": true,
      "inputs": [
        {
          "name": "",
          "type": "uint256"
        }
      ],
      "name": "strategies",
      "outputs": [
        {
          "name": "ID",
          "type": "uint256"
        },
        {
          "name": "IDinUser",
          "type": "uint256"
        },
        {
          "name": "Name",
          "type": "string"
        },
        {
          "name": "dividendRate",
          "type": "int256"
        },
        {
          "name": "ownerAddress",
          "type": "address"
        },
        {
          "name": "ownerName",
          "type": "bytes32"
        },
        {
          "name": "daily_return",
          "type": "int256"
        },
        {
          "name": "sharpe_ratio",
          "type": "int256"
        },
        {
          "name": "maximum_draw_down",
          "type": "int256"
        },
        {
          "name": "isValid",
          "type": "bool"
        },
        {
          "name": "trCount",
          "type": "uint256"
        }
      ],
      "payable": false,
      "stateMutability": "view",
      "type": "function",
      "signature": "0xd574ea3d"
    },
    {
      "inputs": [],
      "payable": false,
      "stateMutability": "nonpayable",
      "type": "constructor",
      "signature": "constructor"
    },
    {
      "constant": false,
      "inputs": [
        {
          "name": "_sName",
          "type": "string"
        },
        {
          "name": "_dRate",
          "type": "int256"
        },
        {
          "name": "in1",
          "type": "int256"
        },
        {
          "name": "in2",
          "type": "int256"
        },
        {
          "name": "in3",
          "type": "int256"
        }
      ],
      "name": "addStrategy",
      "outputs": [],
      "payable": false,
      "stateMutability": "nonpayable",
      "type": "function",
      "signature": "0x0a954656"
    },
    {
      "constant": false,
      "inputs": [],
      "name": "getRandomNum",
      "outputs": [
        {
          "name": "",
          "type": "int256"
        }
      ],
      "payable": false,
      "stateMutability": "nonpayable",
      "type": "function",
      "signature": "0x25b814f4"
    },
    {
      "constant": false,
      "inputs": [
        {
          "name": "principal",
          "type": "int256"
        },
        {
          "name": "sCount",
          "type": "uint256"
        }
      ],
      "name": "invest",
      "outputs": [],
      "payable": false,
      "stateMutability": "nonpayable",
      "type": "function",
      "signature": "0xaab55e4b"
    }
  ],
  "bytecode": "0x608060405260016000553480156200001657600080fd5b506200003062000093640100000000026401000000009004565b600260003373ffffffffffffffffffffffffffffffffffffffff1673ffffffffffffffffffffffffffffffffffffffff16815260200190815260200160002060040160149054906101000a900460ff161515156200008d57600080fd5b620008e8565b6000738473db8d4106e66158673de19c290e4516250ddc905060007373ea460ae904c3f0496f02eea271ecebd2fb0490905060007fe9bb84e99ba8e4bc9e0000000000000000000000000000000000000000000000905060007fe99381e6b091000000000000000000000000000000000000000000000000000090506200012a83836200028d640100000000026401000000009004565b506200014684826200028d640100000000026401000000009004565b5060606040805190810160405280600981526020017f7374726174656779310000000000000000000000000000000000000000000000815250905060606040805190810160405280601f81526020017f57414e472059557869616e207320696e636f6d696e6720737472617465677900815250905060608060405190810160405280602581526020017f4c692048616f79616e67e79a84e8b685e7baa7e697a0e6958ce5ae87e5ae99e781526020017fad96e795a500000000000000000000000000000000000000000000000000000081525090506200023e8784600560016002600362000547640100000000026401000000009004565b620002618783600560016002600362000547640100000000026401000000009004565b620002848682600a60016002600362000547640100000000026401000000009004565b50505050505050565b6000600260008473ffffffffffffffffffffffffffffffffffffffff1673ffffffffffffffffffffffffffffffffffffffff16815260200190815260200160002060040160149054906101000a900460ff1615620002ef576000905062000541565b81600260008573ffffffffffffffffffffffffffffffffffffffff1673ffffffffffffffffffffffffffffffffffffffff1681526020019081526020016000206000018190555082600260008573ffffffffffffffffffffffffffffffffffffffff1673ffffffffffffffffffffffffffffffffffffffff16815260200190815260200160002060040160006101000a81548173ffffffffffffffffffffffffffffffffffffffff021916908373ffffffffffffffffffffffffffffffffffffffff1602179055506064600260008573ffffffffffffffffffffffffffffffffffffffff1673ffffffffffffffffffffffffffffffffffffffff168152602001908152602001600020600101819055506000600260008573ffffffffffffffffffffffffffffffffffffffff1673ffffffffffffffffffffffffffffffffffffffff168152602001908152602001600020600201819055506000600260008573ffffffffffffffffffffffffffffffffffffffff1673ffffffffffffffffffffffffffffffffffffffff168152602001908152602001600020600301819055506001600260008573ffffffffffffffffffffffffffffffffffffffff1673ffffffffffffffffffffffffffffffffffffffff16815260200190815260200160002060040160146101000a81548160ff021916908315150217905550826001600084815260200190815260200160002060006101000a81548173ffffffffffffffffffffffffffffffffffffffff021916908373ffffffffffffffffffffffffffffffffffffffff160217905550600190505b92915050565b6000600260008873ffffffffffffffffffffffffffffffffffffffff1673ffffffffffffffffffffffffffffffffffffffff168152602001908152602001600020600201549050600454600360006004548152602001908152602001600020600001819055508060036000600454815260200190815260200160002060010181905550856003600060045481526020019081526020016000206002019080519060200190620005f892919062000839565b5084600360006004548152602001908152602001600020600301819055508660036000600454815260200190815260200160002060040160006101000a81548173ffffffffffffffffffffffffffffffffffffffff021916908373ffffffffffffffffffffffffffffffffffffffff160217905550836003600060045481526020019081526020016000206006018190555082600360006004548152602001908152602001600020600701819055508160036000600454815260200190815260200160002060080181905550600160036000600454815260200190815260200160002060090160006101000a81548160ff0219169083151502179055506000600360006004548152602001908152602001600020600a0181905550600260008873ffffffffffffffffffffffffffffffffffffffff1673ffffffffffffffffffffffffffffffffffffffff1681526020019081526020016000206000015460036000600454815260200190815260200160002060050181905550600454600260008973ffffffffffffffffffffffffffffffffffffffff1673ffffffffffffffffffffffffffffffffffffffff168152602001908152602001600020600501600083815260200190815260200160002081905550600260008873ffffffffffffffffffffffffffffffffffffffff1673ffffffffffffffffffffffffffffffffffffffff1681526020019081526020016000206002016000815480929190600101919050555060046000815480929190600101919050555050505050505050565b828054600181600116156101000203166002900490600052602060002090601f016020900481019282601f106200087c57805160ff1916838001178555620008ad565b82800160010185558215620008ad579182015b82811115620008ac5782518255916020019190600101906200088f565b5b509050620008bc9190620008c0565b5090565b620008e591905b80821115620008e1576000816000905550600101620008c7565b5090565b90565b610c8780620008f86000396000f3fe608060405260043610610083576000357c0100000000000000000000000000000000000000000000000000000000900463ffffffff1680630a954656146100885780632489f7f71461017857806325b814f4146101a3578063a87430ba146101ce578063aab55e4b14610286578063ab19448d146102cb578063d574ea3d14610346575b600080fd5b34801561009457600080fd5b50610176600480360360a08110156100ab57600080fd5b81019080803590602001906401000000008111156100c857600080fd5b8201836020820111156100da57600080fd5b803590602001918460018302840111640100000000831117156100fc57600080fd5b91908080601f016020809104026020016040519081016040528093929190818152602001838380828437600081840152601f19601f82011690508083019250505050505050919291929080359060200190929190803590602001909291908035906020019092919080359060200190929190505050610470565b005b34801561018457600080fd5b5061018d61048b565b6040518082815260200191505060405180910390f35b3480156101af57600080fd5b506101b8610491565b6040518082815260200191505060405180910390f35b3480156101da57600080fd5b5061021d600480360360208110156101f157600080fd5b81019080803573ffffffffffffffffffffffffffffffffffffffff16906020019092919050505061053b565b604051808781526020018681526020018581526020018481526020018373ffffffffffffffffffffffffffffffffffffffff1673ffffffffffffffffffffffffffffffffffffffff16815260200182151515158152602001965050505050505060405180910390f35b34801561029257600080fd5b506102c9600480360360408110156102a957600080fd5b8101908080359060200190929190803590602001909291905050506105a4565b005b3480156102d757600080fd5b50610304600480360360208110156102ee57600080fd5b81019080803590602001909291905050506106e5565b604051808273ffffffffffffffffffffffffffffffffffffffff1673ffffffffffffffffffffffffffffffffffffffff16815260200191505060405180910390f35b34801561035257600080fd5b5061037f6004803603602081101561036957600080fd5b8101908080359060200190929190505050610718565b604051808c81526020018b8152602001806020018a81526020018973ffffffffffffffffffffffffffffffffffffffff1673ffffffffffffffffffffffffffffffffffffffff1681526020018881526020018781526020018681526020018581526020018415151515815260200183815260200182810382528b818151815260200191508051906020019080838360005b8381101561042b578082015181840152602081019050610410565b50505050905090810190601f1680156104585780820380516001836020036101000a031916815260200191505b509c5050505050505050505050505060405180910390f35b6000339050610483818787878787610837565b505050505050565b60045481565b60008060644233600054604051602001808481526020018373ffffffffffffffffffffffffffffffffffffffff1673ffffffffffffffffffffffffffffffffffffffff166c010000000000000000000000000281526014018281526020019350505050604051602081830303815290604052805190602001206001900481151561051757fe5b0790506276adf160016000540181151561052d57fe5b076000819055508091505090565b60026020528060005260406000206000915090508060000154908060010154908060020154908060030154908060040160009054906101000a900473ffffffffffffffffffffffffffffffffffffffff16908060040160149054906101000a900460ff16905086565b60006003600083815260200190815260200160002060040160009054906101000a900473ffffffffffffffffffffffffffffffffffffffff169050600033905060006105ee610491565b90506000859050600082131561068857606486830281151561060c57fe5b0591508273ffffffffffffffffffffffffffffffffffffffff168473ffffffffffffffffffffffffffffffffffffffff1614151561068357600060036000878152602001908152602001600020600301548302905060648181151561066d57fe5b059050808383010391506106818582610b27565b505b6106d3565b606486837fffffffffffffffffffffffffffffffffffffffffffffffffffffffffffffffff02028115156106b857fe5b059150858213156106cc57600090506106d2565b81810390505b5b6106dd8382610b27565b505050505050565b60016020528060005260406000206000915054906101000a900473ffffffffffffffffffffffffffffffffffffffff1681565b6003602052806000526040600020600091509050806000015490806001015490806002018054600181600116156101000203166002900480601f0160208091040260200160405190810160405280929190818152602001828054600181600116156101000203166002900480156107d05780601f106107a5576101008083540402835291602001916107d0565b820191906000526020600020905b8154815290600101906020018083116107b357829003601f168201915b5050505050908060030154908060040160009054906101000a900473ffffffffffffffffffffffffffffffffffffffff16908060050154908060060154908060070154908060080154908060090160009054906101000a900460ff169080600a015490508b565b6000600260008873ffffffffffffffffffffffffffffffffffffffff1673ffffffffffffffffffffffffffffffffffffffff1681526020019081526020016000206002015490506004546003600060045481526020019081526020016000206000018190555080600360006004548152602001908152602001600020600101819055508560036000600454815260200190815260200160002060020190805190602001906108e6929190610bb6565b5084600360006004548152602001908152602001600020600301819055508660036000600454815260200190815260200160002060040160006101000a81548173ffffffffffffffffffffffffffffffffffffffff021916908373ffffffffffffffffffffffffffffffffffffffff160217905550836003600060045481526020019081526020016000206006018190555082600360006004548152602001908152602001600020600701819055508160036000600454815260200190815260200160002060080181905550600160036000600454815260200190815260200160002060090160006101000a81548160ff0219169083151502179055506000600360006004548152602001908152602001600020600a0181905550600260008873ffffffffffffffffffffffffffffffffffffffff1673ffffffffffffffffffffffffffffffffffffffff1681526020019081526020016000206000015460036000600454815260200190815260200160002060050181905550600454600260008973ffffffffffffffffffffffffffffffffffffffff1673ffffffffffffffffffffffffffffffffffffffff168152602001908152602001600020600501600083815260200190815260200160002081905550600260008873ffffffffffffffffffffffffffffffffffffffff1673ffffffffffffffffffffffffffffffffffffffff1681526020019081526020016000206002016000815480929190600101919050555060046000815480929190600101919050555050505050505050565b80600260008473ffffffffffffffffffffffffffffffffffffffff1673ffffffffffffffffffffffffffffffffffffffff1681526020019081526020016000206001015401600260008473ffffffffffffffffffffffffffffffffffffffff1673ffffffffffffffffffffffffffffffffffffffff168152602001908152602001600020600101819055505050565b828054600181600116156101000203166002900490600052602060002090601f016020900481019282601f10610bf757805160ff1916838001178555610c25565b82800160010185558215610c25579182015b82811115610c24578251825591602001919060010190610c09565b5b509050610c329190610c36565b5090565b610c5891905b80821115610c54576000816000905550600101610c3c565b5090565b9056fea165627a7a723058205ee8c9298ddd726d6b79bbb0b86c02b5d81dce2347785e281b3588392bbf2da60029",
  "source": "pragma solidity ^0.5.0;\n\n\ncontract StrategyInvestment{\n\n\tstruct Transcation{\n\t\taddress fromAddr;\n\t\taddress toAddr;\n\t\tuint256 tDate;\n\t\tint investResult;\n\t}\n\t\n\t// struct Indicates{\n\t// \tint daily_return;\n\t// \tint sharpe_ratio;\n\t// \tint maximum;\n\t// \tint draw_down;\n\t// }\n\n\tstruct Strategy{\n\t\tuint ID;\n\t\tuint IDinUser;\n\t\t// the strategy owner will get dividendRate * income if income > 0.\n\t\tstring Name;\n\t\tint dividendRate;\n\t\taddress ownerAddress;\n\t\tbytes32 ownerName;\n\t\t// int indicates; // simplfy it\n\t\t\n\t\t//indicates;\n\t\tint daily_return;\n\t\tint sharpe_ratio;\n\t\tint maximum_draw_down;\n\n\n\t\tbool isValid;\n\t\tuint trCount;\n\t\tmapping(uint => Transcation) transcations;\n\t}\n\tstruct User{\n\t\t// 拥有的虚拟货币\n\t\tbytes32 username;\n\t\tint holdCurrency;\n\t\tuint strategiesCount;\n\t\tuint validSCount;\n\t\t// 不知道需不需要Hash\n\t\taddress userAddress;\n\t\tbool isValid;\n\n\t\tmapping(uint => uint) strategies_ids;\n\t}\n\tint nonce = 1;\n\t// mapping (uint => int) public randomNums;\n\t// uint public randomCount;\n\n\n\tmapping (bytes32 => address) public usersname_to_address; \n\tmapping (address => User) public users;\n\tmapping (uint => Strategy) public strategies;\n\tuint public strategiesCount;\n\n\t/*构造函数*/\n\tconstructor() public{\n\t\t_init();\n\t\trequire(!users[msg.sender].isValid);\n\t\t// if(!users[msg.sender].isValid){\n\t\t// \t_addUser(msg.sender);\n\t\t// }\n\t}\n\n\tfunction _init() private{\n\t\t/*add two users*/\n\t\taddress addr_index07 = 0x8473dB8d4106e66158673dE19C290E4516250dDc;\n\t\taddress addr_index03 = 0x73Ea460Ae904C3f0496f02Eea271eCeBd2fB0490;\n\t\t\n\t\tbytes32 user_name1 = \"黄雨伞\";\n\t\tbytes32 user_name2 = \"铁民\";\n\n\n\t\t_addUser(addr_index03,user_name1);\n\t\t_addUser(addr_index07,user_name2);\n\n\t\tstring memory name1 = \"strategy1\";\n\t\tstring memory name2 = \"WANG YUxian s incoming strategy\";\n\t\tstring memory name3 = \"Li Haoyang的超级无敌宇宙策略\";\n\n\t\t\n\t\t_addStrategy(addr_index07,name1,5,1,2,3);\n\t\t_addStrategy(addr_index07,name2,5,1,2,3);\n\t\t_addStrategy(addr_index03,name3,10,1,2,3);\n\t}\n\n\tfunction _addUser(address _addr, bytes32 _uname) private returns(bool){\n\t\t// is exist\n\t\tif(users[_addr].isValid) return false;\n\t\tusers[_addr].username = _uname;\n\t\tusers[_addr].userAddress = _addr;\n\t\tusers[_addr].holdCurrency = 100; // 100.00 actually\n\t\tusers[_addr].strategiesCount = 0;\n\t\tusers[_addr].validSCount = 0;\n\t\tusers[_addr].isValid = true;\n\n\t\tusersname_to_address[_uname] = _addr;\n\n\t\treturn true;\n\t}\n\tfunction _operateUserCurrency(address userAddress, int opeN) private{\n\t\t// if(opeN < 0 && users[userAddress].holdCurrency + opeN < 0){\n\t\t// \treturn false;\n\t\t// }\n\t\tusers[userAddress].holdCurrency = users[userAddress].holdCurrency + opeN;\n\t\t// return true;\n\t}\n\n\tfunction addStrategy(string memory _sName,int _dRate,int in1,int in2,int in3) public{\n\t\taddress addr = msg.sender;\n\t\t_addStrategy(addr,_sName,_dRate, in1, in2, in3);\n\t}\n\tfunction _addStrategy(address addr,string memory _sName,int _dRate,int in1,int in2,int in3) private{\n\t\t// usersCount++;\n\t\tuint id = users[addr].strategiesCount;\n\n\t\tstrategies[strategiesCount].ID = strategiesCount;\n\t\tstrategies[strategiesCount].IDinUser = id;\n\t\t// the strategy owner will get dividendRate * income if income > 0.\n\t\tstrategies[strategiesCount].Name = _sName;\n\t\tstrategies[strategiesCount].dividendRate = _dRate;\n\t\tstrategies[strategiesCount].ownerAddress = addr;\n\n\n\t\tstrategies[strategiesCount].daily_return = in1; // simplfy it\n\t\tstrategies[strategiesCount].sharpe_ratio = in2; // simplfy it\n\t\tstrategies[strategiesCount].maximum_draw_down = in3; // simplfy it\n\n\n\n\t\tstrategies[strategiesCount].isValid = true;\n\t\tstrategies[strategiesCount].trCount = 0;\n\n\t\tstrategies[strategiesCount].ownerName = users[addr].username;\n\n\n\t\tusers[addr].strategies_ids[id] = strategiesCount;\n\t\tusers[addr].strategiesCount++;\n\t\tstrategiesCount++;\n\t}\n\tfunction _addTranscation(address fromAddr, address toAddr, int res, uint sId) private{\n\t\t\n\t\tuint trId = strategies[sId].trCount;\n\n\t\tstrategies[sId].transcations[trId].fromAddr = fromAddr;\n\t\tstrategies[sId].transcations[trId].toAddr = toAddr;\n\t\tstrategies[sId].transcations[trId].tDate = now;\n\t\tstrategies[sId].transcations[trId].investResult = res;\n\n\t}\n\t// function update() public{\n\t// \t/**/\n\t// }\n\n\n\tfunction getRandomNum() public returns (int){\n\t\t// uint o1 = 2;\n\t\tint randomnumber = int(keccak256(abi.encodePacked(now, msg.sender, nonce))) % 100;\n\t    // randomNums[randomCount] = randomnumber;\n\t    // randomCount++;\n\t    nonce = (nonce + 1) % 7777777;\n\t    return randomnumber;\n\t}\n\tfunction invest(int principal, uint sCount) public {\n\t\t/*\n\t\t\tprincipal: investment principal\n\t\t\tsCount: strategiesCount\n\t\t*/\n\t\taddress strategyOwner = strategies[sCount].ownerAddress;\n\t\taddress investor = msg.sender;\n\n\t\tint investmentRes = getRandomNum();\n\n\n\t\tint totalIncome = principal;\n\n\t\tif(investmentRes > 0){\n\t\t\tinvestmentRes = (investmentRes *  principal) / 100;\n\t\t\tif(strategyOwner != investor){\n\n\t\t\t\tint dividendFee = investmentRes * strategies[sCount].dividendRate;\n\t\t\t\tdividendFee = dividendFee / 100;\n\t\t\t\ttotalIncome = totalIncome + investmentRes - dividendFee;\n\t\t\t\t_operateUserCurrency(strategyOwner,dividendFee);\n\t\t\t}\n\t\t\t\n\t\t}else{\n\t\t\tinvestmentRes = (-1 * investmentRes *  principal) / 100;\n\t\t\tif(investmentRes >  principal){\n\t\t\t\ttotalIncome = 0;\n\t\t\t}else{\n\t\t\t\ttotalIncome = totalIncome - investmentRes;\n\t\t\t}\n\t\t}\n\n\t\t_operateUserCurrency(investor,totalIncome);\n\t}\n}",
  "sourcePath": "/Users/haomao/Documents/Git/Backtest-with-blockChain/backtest/contracts/StrategyInvestment.sol",
  "compiler": {
    "name": "solc",
    "version": "0.5.0+commit.1d4f565a.Emscripten.clang"
  },
  "schemaVersion": "3.0.8",
  "updatedAt": "2019-05-03T13:04:26.878Z",
  "devdoc": {
    "methods": {}
  },
  "userdoc": {
    "methods": {}
  }
}