{
  "contractName": "StrategyInvestment",
  "abi": [
    {
      "constant": true,
      "inputs": [],
      "name": "strategiesCount",
      "outputs": [
        {
          "name": "",
          "type": "uint256"
        }
      ],
      "payable": false,
      "stateMutability": "view",
      "type": "function",
      "signature": "0x2489f7f7"
    },
    {
      "constant": true,
      "inputs": [],
      "name": "transcationsCount",
      "outputs": [
        {
          "name": "",
          "type": "uint256"
        }
      ],
      "payable": false,
      "stateMutability": "view",
      "type": "function",
      "signature": "0x47b2fb62"
    },
    {
      "constant": true,
      "inputs": [
        {
          "name": "",
          "type": "uint256"
        }
      ],
      "name": "transcations",
      "outputs": [
        {
          "name": "fromAddr",
          "type": "address"
        },
        {
          "name": "toAddr",
          "type": "bytes32"
        },
        {
          "name": "tDate",
          "type": "uint256"
        },
        {
          "name": "investResult",
          "type": "int256"
        },
        {
          "name": "dividendFee",
          "type": "int256"
        },
        {
          "name": "strategyName",
          "type": "string"
        }
      ],
      "payable": false,
      "stateMutability": "view",
      "type": "function",
      "signature": "0x78e8691d"
    },
    {
      "constant": true,
      "inputs": [
        {
          "name": "",
          "type": "address"
        }
      ],
      "name": "users",
      "outputs": [
        {
          "name": "username",
          "type": "bytes32"
        },
        {
          "name": "holdCurrency",
          "type": "int256"
        },
        {
          "name": "strategiesCount",
          "type": "uint256"
        },
        {
          "name": "validSCount",
          "type": "uint256"
        },
        {
          "name": "userAddress",
          "type": "address"
        },
        {
          "name": "isValid",
          "type": "bool"
        },
        {
          "name": "transcationsCount",
          "type": "uint256"
        }
      ],
      "payable": false,
      "stateMutability": "view",
      "type": "function",
      "signature": "0xa87430ba"
    },
    {
      "constant": true,
      "inputs": [
        {
          "name": "",
          "type": "bytes32"
        }
      ],
      "name": "usersname_to_address",
      "outputs": [
        {
          "name": "",
          "type": "address"
        }
      ],
      "payable": false,
      "stateMutability": "view",
      "type": "function",
      "signature": "0xab19448d"
    },
    {
      "constant": true,
      "inputs": [
        {
          "name": "",
          "type": "uint256"
        }
      ],
      "name": "strategies",
      "outputs": [
        {
          "name": "ID",
          "type": "uint256"
        },
        {
          "name": "IDinUser",
          "type": "uint256"
        },
        {
          "name": "Name",
          "type": "string"
        },
        {
          "name": "dividendRate",
          "type": "int256"
        },
        {
          "name": "ownerAddress",
          "type": "address"
        },
        {
          "name": "ownerName",
          "type": "bytes32"
        },
        {
          "name": "daily_return",
          "type": "int256"
        },
        {
          "name": "sharpe_ratio",
          "type": "int256"
        },
        {
          "name": "maximum_draw_down",
          "type": "int256"
        },
        {
          "name": "isValid",
          "type": "bool"
        },
        {
          "name": "trCount",
          "type": "uint256"
        },
        {
          "name": "transcationsCount",
          "type": "uint256"
        }
      ],
      "payable": false,
      "stateMutability": "view",
      "type": "function",
      "signature": "0xd574ea3d"
    },
    {
      "inputs": [],
      "payable": false,
      "stateMutability": "nonpayable",
      "type": "constructor",
      "signature": "constructor"
    },
    {
      "constant": false,
      "inputs": [
        {
          "name": "x",
          "type": "bytes32"
        }
      ],
      "name": "bytes32ToString",
      "outputs": [
        {
          "name": "",
          "type": "string"
        }
      ],
      "payable": false,
      "stateMutability": "nonpayable",
      "type": "function",
      "signature": "0x9201de55"
    },
    {
      "constant": false,
      "inputs": [
        {
          "name": "_sName",
          "type": "string"
        },
        {
          "name": "_dRate",
          "type": "int256"
        },
        {
          "name": "in1",
          "type": "int256"
        },
        {
          "name": "in2",
          "type": "int256"
        },
        {
          "name": "in3",
          "type": "int256"
        }
      ],
      "name": "addStrategy",
      "outputs": [],
      "payable": false,
      "stateMutability": "nonpayable",
      "type": "function",
      "signature": "0x0a954656"
    },
    {
      "constant": false,
      "inputs": [],
      "name": "getRandomNum",
      "outputs": [
        {
          "name": "",
          "type": "int256"
        }
      ],
      "payable": false,
      "stateMutability": "nonpayable",
      "type": "function",
      "signature": "0x25b814f4"
    },
    {
      "constant": false,
      "inputs": [
        {
          "name": "principal",
          "type": "int256"
        },
        {
          "name": "sCount",
          "type": "uint256"
        }
      ],
      "name": "invest",
      "outputs": [],
      "payable": false,
      "stateMutability": "nonpayable",
      "type": "function",
      "signature": "0xaab55e4b"
    }
  ],
  "bytecode": "0x608060405260016000553480156200001657600080fd5b506200003062000036640100000000026401000000009004565b62000a63565b6000738473db8d4106e66158673de19c290e4516250ddc905060007373ea460ae904c3f0496f02eea271ecebd2fb04909050600073fc908d6e53daaea0765d41a908001093abb0ddb99050600073ebee3c3a55072e9581c1d34ff34c56b2de1ec5e2905060007f416c696365000000000000000000000000000000000000000000000000000000905060007f426f620000000000000000000000000000000000000000000000000000000000905060007f4861727279000000000000000000000000000000000000000000000000000000905060007fe9bb84e99ba8e4bc9e0000000000000000000000000000000000000000000000905062000149878562000407640100000000026401000000009004565b5062000165888462000407640100000000026401000000009004565b5062000181868362000407640100000000026401000000009004565b506200019d858262000407640100000000026401000000009004565b5060606040805190810160405280601c81526020017f59557869616e2031737420737373737570657220737472617465677900000000815250905060606040805190810160405280600a81526020017f5553542047656e69757300000000000000000000000000000000000000000000815250905060606040805190810160405280600a81526020017f736f6f6f6f20636f6f6c00000000000000000000000000000000000000000000815250905060606040805190810160405280601d81526020017f54616920506f20547361692076696c6c616765207375706572206f6e65000000815250905060606040805190810160405280601081526020017f484b20676f6f6420737472617465677900000000000000000000000000000000815250905060606040805190810160405280600f81526020017fe7a791e5a4a7e6899be68a8ae5ad90000000000000000000000000000000000081525090506200031f8e87600f60326103e86102bc620006c2640100000000026401000000009004565b620003448d86600460286104b0610258620006c2640100000000026401000000009004565b620003698d85600a601e6105786101f4620006c2640100000000026401000000009004565b620003ad8c8460077fffffffffffffffffffffffffffffffffffffffffffffffffffffffffffffffcc61076c61012c620006c2640100000000026401000000009004565b620003d28c836008602d6107d06103e8620006c2640100000000026401000000009004565b620003f78b826014601561145061012c620006c2640100000000026401000000009004565b5050505050505050505050505050565b6000600260008473ffffffffffffffffffffffffffffffffffffffff1673ffffffffffffffffffffffffffffffffffffffff16815260200190815260200160002060040160149054906101000a900460ff1615620004695760009050620006bc565b81600260008573ffffffffffffffffffffffffffffffffffffffff1673ffffffffffffffffffffffffffffffffffffffff1681526020019081526020016000206000018190555082600260008573ffffffffffffffffffffffffffffffffffffffff1673ffffffffffffffffffffffffffffffffffffffff16815260200190815260200160002060040160006101000a81548173ffffffffffffffffffffffffffffffffffffffff021916908373ffffffffffffffffffffffffffffffffffffffff1602179055506103e8600260008573ffffffffffffffffffffffffffffffffffffffff1673ffffffffffffffffffffffffffffffffffffffff168152602001908152602001600020600101819055506000600260008573ffffffffffffffffffffffffffffffffffffffff1673ffffffffffffffffffffffffffffffffffffffff168152602001908152602001600020600201819055506000600260008573ffffffffffffffffffffffffffffffffffffffff1673ffffffffffffffffffffffffffffffffffffffff168152602001908152602001600020600301819055506001600260008573ffffffffffffffffffffffffffffffffffffffff1673ffffffffffffffffffffffffffffffffffffffff16815260200190815260200160002060040160146101000a81548160ff021916908315150217905550826001600084815260200190815260200160002060006101000a81548173ffffffffffffffffffffffffffffffffffffffff021916908373ffffffffffffffffffffffffffffffffffffffff160217905550600190505b92915050565b6000600260008873ffffffffffffffffffffffffffffffffffffffff1673ffffffffffffffffffffffffffffffffffffffff16815260200190815260200160002060020154905060065460036000600654815260200190815260200160002060000181905550806003600060065481526020019081526020016000206001018190555085600360006006548152602001908152602001600020600201908051906020019062000773929190620009b4565b5084600360006006548152602001908152602001600020600301819055508660036000600654815260200190815260200160002060040160006101000a81548173ffffffffffffffffffffffffffffffffffffffff021916908373ffffffffffffffffffffffffffffffffffffffff160217905550836003600060065481526020019081526020016000206006018190555082600360006006548152602001908152602001600020600701819055508160036000600654815260200190815260200160002060080181905550600160036000600654815260200190815260200160002060090160006101000a81548160ff0219169083151502179055506000600360006006548152602001908152602001600020600a0181905550600260008873ffffffffffffffffffffffffffffffffffffffff1673ffffffffffffffffffffffffffffffffffffffff1681526020019081526020016000206000015460036000600654815260200190815260200160002060050181905550600654600260008973ffffffffffffffffffffffffffffffffffffffff1673ffffffffffffffffffffffffffffffffffffffff168152602001908152602001600020600601600083815260200190815260200160002081905550600260008873ffffffffffffffffffffffffffffffffffffffff1673ffffffffffffffffffffffffffffffffffffffff1681526020019081526020016000206002016000815480929190600101919050555060066000815480929190600101919050555050505050505050565b828054600181600116156101000203166002900490600052602060002090601f016020900481019282601f10620009f757805160ff191683800117855562000a28565b8280016001018555821562000a28579182015b8281111562000a2757825182559160200191906001019062000a0a565b5b50905062000a37919062000a3b565b5090565b62000a6091905b8082111562000a5c57600081600090555060010162000a42565b5090565b90565b6115548062000a736000396000f3fe6080604052600436106100a4576000357c0100000000000000000000000000000000000000000000000000000000900463ffffffff1680630a954656146100a95780632489f7f71461019957806325b814f4146101c457806347b2fb62146101ef57806378e8691d1461021a5780639201de551461031d578063a87430ba146103d1578063aab55e4b14610490578063ab19448d146104d5578063d574ea3d14610550575b600080fd5b3480156100b557600080fd5b50610197600480360360a08110156100cc57600080fd5b81019080803590602001906401000000008111156100e957600080fd5b8201836020820111156100fb57600080fd5b8035906020019184600183028401116401000000008311171561011d57600080fd5b91908080601f016020809104026020016040519081016040528093929190818152602001838380828437600081840152601f19601f82011690508083019250505050505050919291929080359060200190929190803590602001909291908035906020019092919080359060200190929190505050610681565b005b3480156101a557600080fd5b506101ae61069c565b6040518082815260200191505060405180910390f35b3480156101d057600080fd5b506101d96106a2565b6040518082815260200191505060405180910390f35b3480156101fb57600080fd5b5061020461074c565b6040518082815260200191505060405180910390f35b34801561022657600080fd5b506102536004803603602081101561023d57600080fd5b8101908080359060200190929190505050610752565b604051808773ffffffffffffffffffffffffffffffffffffffff1673ffffffffffffffffffffffffffffffffffffffff16815260200186815260200185815260200184815260200183815260200180602001828103825283818151815260200191508051906020019080838360005b838110156102dd5780820151818401526020810190506102c2565b50505050905090810190601f16801561030a5780820380516001836020036101000a031916815260200191505b5097505050505050505060405180910390f35b34801561032957600080fd5b506103566004803603602081101561034057600080fd5b8101908080359060200190929190505050610846565b6040518080602001828103825283818151815260200191508051906020019080838360005b8381101561039657808201518184015260208101905061037b565b50505050905090810190601f1680156103c35780820380516001836020036101000a031916815260200191505b509250505060405180910390f35b3480156103dd57600080fd5b50610420600480360360208110156103f457600080fd5b81019080803573ffffffffffffffffffffffffffffffffffffffff169060200190929190505050610a43565b604051808881526020018781526020018681526020018581526020018473ffffffffffffffffffffffffffffffffffffffff1673ffffffffffffffffffffffffffffffffffffffff1681526020018315151515815260200182815260200197505050505050505060405180910390f35b34801561049c57600080fd5b506104d3600480360360408110156104b357600080fd5b810190808035906020019092919080359060200190929190505050610ab2565b005b3480156104e157600080fd5b5061050e600480360360208110156104f857600080fd5b8101908080359060200190929190505050610c7b565b604051808273ffffffffffffffffffffffffffffffffffffffff1673ffffffffffffffffffffffffffffffffffffffff16815260200191505060405180910390f35b34801561055c57600080fd5b506105896004803603602081101561057357600080fd5b8101908080359060200190929190505050610cae565b604051808d81526020018c8152602001806020018b81526020018a73ffffffffffffffffffffffffffffffffffffffff1673ffffffffffffffffffffffffffffffffffffffff1681526020018981526020018881526020018781526020018681526020018515151515815260200184815260200183815260200182810382528c818151815260200191508051906020019080838360005b8381101561063b578082015181840152602081019050610620565b50505050905090810190601f1680156106685780820380516001836020036101000a031916815260200191505b509d505050505050505050505050505060405180910390f35b6000339050610694818787878787610dd3565b505050505050565b60065481565b60008060644233600054604051602001808481526020018373ffffffffffffffffffffffffffffffffffffffff1673ffffffffffffffffffffffffffffffffffffffff166c010000000000000000000000000281526014018281526020019350505050604051602081830303815290604052805190602001206001900481151561072857fe5b0790506276adf160016000540181151561073e57fe5b076000819055508091505090565b60055481565b60046020528060005260406000206000915090508060000160009054906101000a900473ffffffffffffffffffffffffffffffffffffffff1690806001015490806002015490806003015490806004015490806005018054600181600116156101000203166002900480601f01602080910402602001604051908101604052809291908181526020018280546001816001161561010002031660029004801561083c5780601f106108115761010080835404028352916020019161083c565b820191906000526020600020905b81548152906001019060200180831161081f57829003601f168201915b5050505050905086565b60608060206040519080825280601f01601f19166020018201604052801561087d5781602001600182028038833980820191505090505b509050600080905060008090505b602081101561094c5760008160080260020a866001900402600102905060007f010000000000000000000000000000000000000000000000000000000000000002817effffffffffffffffffffffffffffffffffffffffffffffffffffffffffffff191614151561093e5780848481518110151561090557fe5b9060200101907effffffffffffffffffffffffffffffffffffffffffffffffffffffffffffff1916908160001a90535082806001019350505b50808060010191505061088b565b506060816040519080825280601f01601f1916602001820160405280156109825781602001600182028038833980820191505090505b50905060008090505b82811015610a375783818151811015156109a157fe5b9060200101517f010000000000000000000000000000000000000000000000000000000000000090047f01000000000000000000000000000000000000000000000000000000000000000282828151811015156109fa57fe5b9060200101907effffffffffffffffffffffffffffffffffffffffffffffffffffffffffffff1916908160001a905350808060010191505061098b565b50809350505050919050565b60026020528060005260406000206000915090508060000154908060010154908060020154908060030154908060040160009054906101000a900473ffffffffffffffffffffffffffffffffffffffff16908060040160149054906101000a900460ff16908060050154905087565b60006003600083815260200190815260200160002060040160009054906101000a900473ffffffffffffffffffffffffffffffffffffffff1690506000339050610b1e81857fffffffffffffffffffffffffffffffffffffffffffffffffffffffffffffffff026110c3565b6000610b286106a2565b9050600085905060008090506000831315610bce576064878402811515610b4b57fe5b0592508373ffffffffffffffffffffffffffffffffffffffff168573ffffffffffffffffffffffffffffffffffffffff16141515610bc357600360008781526020019081526020016000206003015483029050606481811515610baa57fe5b05905080838801039150610bbe85826110c3565b610bc9565b82870191505b610c19565b606487847fffffffffffffffffffffffffffffffffffffffffffffffffffffffffffffffff0202811515610bfe57fe5b05925086831315610c125760009150610c18565b82820391505b5b610c2384836110c3565b610c7284600260008873ffffffffffffffffffffffffffffffffffffffff1673ffffffffffffffffffffffffffffffffffffffff16815260200190815260200160002060000154888486611152565b50505050505050565b60016020528060005260406000206000915054906101000a900473ffffffffffffffffffffffffffffffffffffffff1681565b6003602052806000526040600020600091509050806000015490806001015490806002018054600181600116156101000203166002900480601f016020809104026020016040519081016040528092919081815260200182805460018160011615610100020316600290048015610d665780601f10610d3b57610100808354040283529160200191610d66565b820191906000526020600020905b815481529060010190602001808311610d4957829003601f168201915b5050505050908060030154908060040160009054906101000a900473ffffffffffffffffffffffffffffffffffffffff16908060050154908060060154908060070154908060080154908060090160009054906101000a900460ff169080600a01549080600b015490508c565b6000600260008873ffffffffffffffffffffffffffffffffffffffff1673ffffffffffffffffffffffffffffffffffffffff168152602001908152602001600020600201549050600654600360006006548152602001908152602001600020600001819055508060036000600654815260200190815260200160002060010181905550856003600060065481526020019081526020016000206002019080519060200190610e829291906113fc565b5084600360006006548152602001908152602001600020600301819055508660036000600654815260200190815260200160002060040160006101000a81548173ffffffffffffffffffffffffffffffffffffffff021916908373ffffffffffffffffffffffffffffffffffffffff160217905550836003600060065481526020019081526020016000206006018190555082600360006006548152602001908152602001600020600701819055508160036000600654815260200190815260200160002060080181905550600160036000600654815260200190815260200160002060090160006101000a81548160ff0219169083151502179055506000600360006006548152602001908152602001600020600a0181905550600260008873ffffffffffffffffffffffffffffffffffffffff1673ffffffffffffffffffffffffffffffffffffffff1681526020019081526020016000206000015460036000600654815260200190815260200160002060050181905550600654600260008973ffffffffffffffffffffffffffffffffffffffff1673ffffffffffffffffffffffffffffffffffffffff168152602001908152602001600020600601600083815260200190815260200160002081905550600260008873ffffffffffffffffffffffffffffffffffffffff1673ffffffffffffffffffffffffffffffffffffffff1681526020019081526020016000206002016000815480929190600101919050555060066000815480929190600101919050555050505050505050565b80600260008473ffffffffffffffffffffffffffffffffffffffff1673ffffffffffffffffffffffffffffffffffffffff1681526020019081526020016000206001015401600260008473ffffffffffffffffffffffffffffffffffffffff1673ffffffffffffffffffffffffffffffffffffffff168152602001908152602001600020600101819055505050565b8460046000600554815260200190815260200160002060000160006101000a81548173ffffffffffffffffffffffffffffffffffffffff021916908373ffffffffffffffffffffffffffffffffffffffff16021790555083600460006005548152602001908152602001600020600101819055504260046000600554815260200190815260200160002060020181905550806004600060055481526020019081526020016000206003018190555060036000848152602001908152602001600020600201600460006005548152602001908152602001600020600501908054600181600116156101000203166002900461124d92919061147c565b508160046000600554815260200190815260200160002060040181905550600060036000858152602001908152602001600020600b0154905060055460036000868152602001908152602001600020600c016000838152602001908152602001600020819055506000600260008873ffffffffffffffffffffffffffffffffffffffff1673ffffffffffffffffffffffffffffffffffffffff168152602001908152602001600020600501549050600260008873ffffffffffffffffffffffffffffffffffffffff1673ffffffffffffffffffffffffffffffffffffffff168152602001908152602001600020600701600554908060018154018082558091505090600182039060005260206000200160009091929091909150555060056000815480929190600101919050555060036000868152602001908152602001600020600b0160008154809291906001019190505550600260008873ffffffffffffffffffffffffffffffffffffffff1673ffffffffffffffffffffffffffffffffffffffff1681526020019081526020016000206005016000815480929190600101919050555050505050505050565b828054600181600116156101000203166002900490600052602060002090601f016020900481019282601f1061143d57805160ff191683800117855561146b565b8280016001018555821561146b579182015b8281111561146a57825182559160200191906001019061144f565b5b5090506114789190611503565b5090565b828054600181600116156101000203166002900490600052602060002090601f016020900481019282601f106114b557805485556114f2565b828001600101855582156114f257600052602060002091601f016020900482015b828111156114f15782548255916001019190600101906114d6565b5b5090506114ff9190611503565b5090565b61152591905b80821115611521576000816000905550600101611509565b5090565b9056fea165627a7a723058207dd752645e978bbed88011613a16f57a5c3618d626417149d0d5be17f555c3460029",
  "source": "pragma solidity ^0.5.0;\n\n/*\ncontract Token{\n\t// ...\n}\ncontract OurCurrency is Token{\n\t// ...\n}\ncontract User{\n\t// ...\n}\ncontract Transcation{\n\t// ...\n}\ncontract Indicates{\n\t// ...\n}\n*/\ncontract StrategyInvestment{\n\n\tstruct Transcation{\n\t\taddress fromAddr; // 0\n\t\tbytes32 toAddr;   // 1\n\t\tuint256 tDate;\t  // 2\n\t\tint investResult; // 3\n\t\tint dividendFee;  // 4\n\n\t\tstring strategyName; // 5\n\t}\n\t// struct Indicates{\n\t// \tint daily_return;\n\t// \tint sharpe_ratio;\n\t// \tint maximum;\n\t// \tint draw_down;\n\t// }\n\n\tstruct Strategy{\n\t\tuint ID;\n\t\tuint IDinUser;\n\t\t// the strategy owner will get dividendRate * income if income > 0.\n\t\tstring Name;\n\t\tint dividendRate;\n\t\taddress ownerAddress;\n\t\tbytes32 ownerName;\n\t\t// int indicates; // simplfy it\n\t\t\n\t\t//indicates;index 6 ,7 ,8\n\t\tint daily_return;\n\t\tint sharpe_ratio;\n\t\tint maximum_draw_down;\n\n\n\t\tbool isValid;\n\t\tuint trCount;\n\n\t\tuint transcationsCount;\n\t\tmapping(uint => uint) transcations_ids;\n\t}\n\tstruct User{\n\t\t// 拥有的虚拟货币\n\t\tbytes32 username;\n\t\tint holdCurrency;\n\t\tuint strategiesCount;\n\t\tuint validSCount;\n\t\t// 不知道需不需要Hash\n\t\taddress userAddress;\n\t\tbool isValid;\n\n\t\tuint transcationsCount;\n\t\tmapping(uint => uint) strategies_ids;\n\t\t// mapping(uint => uint) transcations_ids;\n\t\tuint [] transcations_ids;\n\t}\n\tint nonce = 1;\n\t// mapping (uint => int) public randomNums;\n\t// uint public randomCount;\n\n\n\tmapping (bytes32 => address) public usersname_to_address; \n\tmapping (address => User) public users;\n\tmapping (uint => Strategy) public strategies;\n\tmapping (uint => Transcation) public transcations;\n\n\tuint public transcationsCount;\n\tuint public strategiesCount;\n\n\t/*构造函数*/\n\tconstructor() public{\n\t\t_init();\n\t\t// require(users[msg.sender].isValid);\n\t\t// if(!users[msg.sender].isValid){\n\t\t// \t_addUser(msg.sender);\n\t\t// }\n\t}\n\n\tfunction bytes32ToString(bytes32 x) public returns (string memory) {\n\t    bytes memory bytesString = new bytes(32);\n\t    uint charCount = 0;\n\t    for (uint j = 0; j < 32; j++) {\n\t        byte char = byte(bytes32(uint(x) * 2 ** (8 * j)));\n\t        if (char != 0) {\n\t            bytesString[charCount] = char;\n\t            charCount++;\n\t        }\n\t    }\n\t    bytes memory bytesStringTrimmed = new bytes(charCount);\n\t    for (uint j = 0; j < charCount; j++) {\n\t        bytesStringTrimmed[j] = bytesString[j];\n\t    }\n\t    return string(bytesStringTrimmed);\n\t}\n\n\tfunction _init() private{\n\t\t/*add two users*/\n\t\taddress addr_index07 = 0x8473dB8d4106e66158673dE19C290E4516250dDc;\n\t\taddress addr_index03 = 0x73Ea460Ae904C3f0496f02Eea271eCeBd2fB0490;\n\t\taddress addr_index05 = 0xfc908D6E53DaaeA0765d41A908001093abb0Ddb9;\n\t\taddress addr_index06 = 0xeBeE3C3A55072e9581c1D34fF34C56b2De1ec5E2;\n\t\t\n\t\tbytes32 user_name1 = \"Alice\";\n\t\tbytes32 user_name2 = \"Bob\";\n\t\tbytes32 user_name3 = \"Harry\";\n\t\tbytes32 user_name4 = \"黄雨伞\";\n\n\n\t\t_addUser(addr_index03,user_name1);\n\t\t_addUser(addr_index07,user_name2);\n\t\t_addUser(addr_index05,user_name3);\n\t\t_addUser(addr_index06,user_name4);\n\n\t\tstring memory name1 = \"YUxian 1st ssssuper strategy\";\n\t\tstring memory name2 = \"UST Genius\";\n\t\tstring memory name3 = \"soooo cool\";\n\t\tstring memory name4 = \"Tai Po Tsai village super one\";\n\t\tstring memory name5 = \"HK good strategy\";\n\t\tstring memory name6 = \"科大扛把子\";\n\n\t\t\n\t\t_addStrategy(addr_index07,name1,15,50,1000,700);\n\t\t_addStrategy(addr_index03,name2,4,40,1200,600);\n\t\t_addStrategy(addr_index03,name3,10,30,1400,500);\n\t\t_addStrategy(addr_index05,name4,7,-52,1900,300);\n\t\t_addStrategy(addr_index05,name5,8,45,2000,1000);\n\t\t_addStrategy(addr_index06,name6,20,21,5200,300);\n\t}\n\n\tfunction _addUser(address _addr, bytes32 _uname) private returns(bool){\n\t\t// is exist\n\t\tif(users[_addr].isValid) return false;\n\t\tusers[_addr].username = _uname;\n\t\tusers[_addr].userAddress = _addr;\n\t\tusers[_addr].holdCurrency = 1000; // 100.00 actually\n\t\tusers[_addr].strategiesCount = 0;\n\t\tusers[_addr].validSCount = 0;\n\t\tusers[_addr].isValid = true;\n\n\t\tusersname_to_address[_uname] = _addr;\n\n\t\treturn true;\n\t}\n\tfunction _operateUserCurrency(address userAddress, int opeN) private{\n\t\t// if(opeN < 0 && users[userAddress].holdCurrency + opeN < 0){\n\t\t// \treturn false;\n\t\t// }\n\t\tusers[userAddress].holdCurrency = users[userAddress].holdCurrency + opeN;\n\t\t// return true;\n\t}\n\n\tfunction addStrategy(string memory _sName,int _dRate,int in1,int in2,int in3) public{\n\t\taddress addr = msg.sender;\n\t\t_addStrategy(addr,_sName,_dRate, in1, in2, in3);\n\t}\n\tfunction _addStrategy(address addr,string memory _sName,int _dRate,int in1,int in2,int in3) private{\n\t\t// usersCount++;\n\t\tuint id = users[addr].strategiesCount;\n\n\t\tstrategies[strategiesCount].ID = strategiesCount;\n\t\tstrategies[strategiesCount].IDinUser = id;\n\t\t// the strategy owner will get dividendRate * income if income > 0.\n\t\tstrategies[strategiesCount].Name = _sName;\n\t\tstrategies[strategiesCount].dividendRate = _dRate;\n\t\tstrategies[strategiesCount].ownerAddress = addr;\n\n\n\t\tstrategies[strategiesCount].daily_return = in1; // simplfy it\n\t\tstrategies[strategiesCount].sharpe_ratio = in2; // simplfy it\n\t\tstrategies[strategiesCount].maximum_draw_down = in3; // simplfy it\n\t\t\n\t\tstrategies[strategiesCount].isValid = true;\n\t\tstrategies[strategiesCount].trCount = 0;\n\n\t\tstrategies[strategiesCount].ownerName = users[addr].username;\n\n\n\t\tusers[addr].strategies_ids[id] = strategiesCount;\n\t\tusers[addr].strategiesCount++;\n\t\tstrategiesCount++;\n\t}\n\n\tfunction _addTranscation(address fromAddr, bytes32 toAddr, uint sId, int dividendFee,int res) private{\n\t\t\n\t\ttranscations[transcationsCount].fromAddr = fromAddr;\n\t\ttranscations[transcationsCount].toAddr = toAddr;\n\t\ttranscations[transcationsCount].tDate = now;\n\t\ttranscations[transcationsCount].investResult = res;\n\t\ttranscations[transcationsCount].strategyName = strategies[sId].Name;\n\t\ttranscations[transcationsCount].dividendFee = dividendFee;\n\n\t\tuint scount = strategies[sId].transcationsCount;\n\t\tstrategies[sId].transcations_ids[scount] = transcationsCount;\n\t\tuint ucount = users[fromAddr].transcationsCount;\n\t\t// users[fromAddr].transcations_ids[ucount] = transcationsCount;\n\t\tusers[fromAddr].transcations_ids.push(transcationsCount);\n\n\t\ttranscationsCount++;\n\t\tstrategies[sId].transcationsCount++;\n\n\t\tusers[fromAddr].transcationsCount++;\n\t}\n\n\t// function update() public{\n\t// \t/**/\n\t// }\n\tfunction getRandomNum() public returns (int){\n\t\t// uint o1 = 2;\n\t\tint randomnumber = int(keccak256(abi.encodePacked(now, msg.sender, nonce))) % 100;\n\t    // randomNums[randomCount] = randomnumber;\n\t    // randomCount++;\n\t    nonce = (nonce + 1) % 7777777;\n\t    return randomnumber;\n\t}\n\tfunction invest(int principal, uint sCount) public {\n\t\t/*\n\t\t\tprincipal: investment principal\n\t\t\tsCount: strategiesCount\n\t\t*/\n\n\n\t\taddress strategyOwner = strategies[sCount].ownerAddress;\n\t\taddress investor = msg.sender;\n\t\t_operateUserCurrency(investor,-1 * principal);\n\n\t\tint investmentRes = getRandomNum();\n\n\t\t// 500\n\t\tint totalIncome = principal;\n\t\tint dividendFee = 0;\n\n\t\tif(investmentRes > 0){\n\t\t\tinvestmentRes = (investmentRes *  principal) / 100;\n\t\t\tif(strategyOwner != investor){\n\t\t\t\tdividendFee = investmentRes * strategies[sCount].dividendRate;\n\t\t\t\tdividendFee = dividendFee / 100;\n\t\t\t\ttotalIncome = principal + investmentRes - dividendFee;\n\t\t\t\t_operateUserCurrency(strategyOwner,dividendFee);\n\t\t\t}else{\n\t\t\t\ttotalIncome = principal + investmentRes;\n\t\t\t}\n\t\t}else{\n\t\t\tinvestmentRes = (-1 * investmentRes *  principal) / 100;\n\t\t\tif(investmentRes >  principal){\n\t\t\t\ttotalIncome = 0;\n\t\t\t}else{\n\t\t\t\ttotalIncome = totalIncome - investmentRes;\n\t\t\t}\n\t\t}\n\t\t_operateUserCurrency(investor,totalIncome);\n\t\t_addTranscation(investor,users[strategyOwner].username,sCount,dividendFee,totalIncome);\n\t}\n}",
  "sourcePath": "/Users/haomao/Documents/Git/Backtest-with-blockChain/backtest/contracts/StrategyInvestment.sol",
  "compiler": {
    "name": "solc",
    "version": "0.5.0+commit.1d4f565a.Emscripten.clang"
  },
  "schemaVersion": "3.0.8",
  "updatedAt": "2019-05-09T08:08:53.427Z",
  "devdoc": {
    "methods": {}
  },
  "userdoc": {
    "methods": {}
  }
}