{
  "contractName": "StrategyInvestment",
  "abi": [
    {
      "constant": true,
      "inputs": [],
      "name": "strategiesCount",
      "outputs": [
        {
          "name": "",
          "type": "uint256"
        }
      ],
      "payable": false,
      "stateMutability": "view",
      "type": "function",
      "signature": "0x2489f7f7"
    },
    {
      "constant": true,
      "inputs": [
        {
          "name": "",
          "type": "address"
        }
      ],
      "name": "users",
      "outputs": [
        {
          "name": "holdCurrency",
          "type": "int256"
        },
        {
          "name": "strategiesCount",
          "type": "uint256"
        },
        {
          "name": "validSCount",
          "type": "uint256"
        },
        {
          "name": "userAddress",
          "type": "address"
        },
        {
          "name": "isValid",
          "type": "bool"
        }
      ],
      "payable": false,
      "stateMutability": "view",
      "type": "function",
      "signature": "0xa87430ba"
    },
    {
      "constant": true,
      "inputs": [
        {
          "name": "",
          "type": "uint256"
        }
      ],
      "name": "strategies",
      "outputs": [
        {
          "name": "IDinUser",
          "type": "uint256"
        },
        {
          "name": "Name",
          "type": "string"
        },
        {
          "name": "dividendRate",
          "type": "int256"
        },
        {
          "name": "ownerAddress",
          "type": "address"
        },
        {
          "name": "indicates",
          "type": "int256"
        },
        {
          "name": "isValid",
          "type": "bool"
        }
      ],
      "payable": false,
      "stateMutability": "view",
      "type": "function",
      "signature": "0xd574ea3d"
    },
    {
      "inputs": [],
      "payable": false,
      "stateMutability": "nonpayable",
      "type": "constructor",
      "signature": "constructor"
    },
    {
      "constant": false,
      "inputs": [
        {
          "name": "_sName",
          "type": "string"
        },
        {
          "name": "_dRate",
          "type": "int256"
        },
        {
          "name": "indicates",
          "type": "int256"
        }
      ],
      "name": "addStrategy",
      "outputs": [],
      "payable": false,
      "stateMutability": "nonpayable",
      "type": "function",
      "signature": "0xcff3212c"
    },
    {
      "constant": false,
      "inputs": [
        {
          "name": "principal",
          "type": "int256"
        },
        {
          "name": "sCount",
          "type": "uint256"
        }
      ],
      "name": "investigate",
      "outputs": [
        {
          "name": "",
          "type": "bool"
        }
      ],
      "payable": false,
      "stateMutability": "nonpayable",
      "type": "function",
      "signature": "0xb6f70554"
    }
  ],
  "bytecode": "0x60806040523480156200001157600080fd5b506200002b620000a3640100000000026401000000009004565b6000803373ffffffffffffffffffffffffffffffffffffffff1673ffffffffffffffffffffffffffffffffffffffff16815260200190815260200160002060030160149054906101000a900460ff1615156200009d576200009b3362000243640100000000026401000000009004565b505b620009a2565b6000738473db8d4106e66158673de19c290e4516250ddc905060007373ea460ae904c3f0496f02eea271ecebd2fb04909050620000ef8162000243640100000000026401000000009004565b506200010a8262000243640100000000026401000000009004565b5060606040805190810160405280600981526020017f7374726174656779310000000000000000000000000000000000000000000000815250905060606040805190810160405280600981526020017f7374726174656779320000000000000000000000000000000000000000000000815250905060608060405190810160405280602581526020017f4c692048616f79616e67e79a84e8b685e7baa7e697a0e6958ce5ae87e5ae99e781526020017fad96e795a50000000000000000000000000000000000000000000000000000008152509050620001fe858460056003620004e7640100000000026401000000009004565b6200021d85836005607a620004e7640100000000026401000000009004565b6200023c848260036007620004e7640100000000026401000000009004565b5050505050565b60008060008373ffffffffffffffffffffffffffffffffffffffff1673ffffffffffffffffffffffffffffffffffffffff16815260200190815260200160002060030160149054906101000a900460ff1615620002a45760009050620004e2565b620002ae6200081d565b82816060019073ffffffffffffffffffffffffffffffffffffffff16908173ffffffffffffffffffffffffffffffffffffffff1681525050806000808573ffffffffffffffffffffffffffffffffffffffff1673ffffffffffffffffffffffffffffffffffffffff16815260200190815260200160002060008201518160000155602082015181600101556040820151816002015560608201518160030160006101000a81548173ffffffffffffffffffffffffffffffffffffffff021916908373ffffffffffffffffffffffffffffffffffffffff16021790555060808201518160030160146101000a81548160ff02191690831515021790555090505060008060008573ffffffffffffffffffffffffffffffffffffffff1673ffffffffffffffffffffffffffffffffffffffff1681526020019081526020016000206000018190555060008060008573ffffffffffffffffffffffffffffffffffffffff1673ffffffffffffffffffffffffffffffffffffffff1681526020019081526020016000206001018190555060008060008573ffffffffffffffffffffffffffffffffffffffff1673ffffffffffffffffffffffffffffffffffffffff1681526020019081526020016000206002018190555060016000808573ffffffffffffffffffffffffffffffffffffffff1673ffffffffffffffffffffffffffffffffffffffff16815260200190815260200160002060030160146101000a81548160ff02191690831515021790555060019150505b919050565b60008060008673ffffffffffffffffffffffffffffffffffffffff1673ffffffffffffffffffffffffffffffffffffffff16815260200190815260200160002060010154905060c0604051908101604052808281526020018581526020018481526020018673ffffffffffffffffffffffffffffffffffffffff168152602001838152602001600115158152506000808773ffffffffffffffffffffffffffffffffffffffff1673ffffffffffffffffffffffffffffffffffffffff1681526020019081526020016000206004016000838152602001908152602001600020600082015181600001556020820151816001019080519060200190620005ee92919062000865565b506040820151816002015560608201518160030160006101000a81548173ffffffffffffffffffffffffffffffffffffffff021916908373ffffffffffffffffffffffffffffffffffffffff1602179055506080820151816004015560a08201518160050160006101000a81548160ff0219169083151502179055509050506000808673ffffffffffffffffffffffffffffffffffffffff1673ffffffffffffffffffffffffffffffffffffffff1681526020019081526020016000206004016000828152602001908152602001600020600160006002548152602001908152602001600020600082015481600001556001820181600101908054600181600116156101000203166002900462000707929190620008ec565b50600282015481600201556003820160009054906101000a900473ffffffffffffffffffffffffffffffffffffffff168160030160006101000a81548173ffffffffffffffffffffffffffffffffffffffff021916908373ffffffffffffffffffffffffffffffffffffffff160217905550600482015481600401556005820160009054906101000a900460ff168160050160006101000a81548160ff0219169083151502179055509050506000808673ffffffffffffffffffffffffffffffffffffffff1673ffffffffffffffffffffffffffffffffffffffff168152602001908152602001600020600101600081548092919060010191905055506002600081548092919060010191905055505050505050565b60a060405190810160405280600081526020016000815260200160008152602001600073ffffffffffffffffffffffffffffffffffffffff1681526020016000151581525090565b828054600181600116156101000203166002900490600052602060002090601f016020900481019282601f10620008a857805160ff1916838001178555620008d9565b82800160010185558215620008d9579182015b82811115620008d8578251825591602001919060010190620008bb565b5b509050620008e891906200097a565b5090565b828054600181600116156101000203166002900490600052602060002090601f016020900481019282601f1062000927578054855562000967565b828001600101855582156200096757600052602060002091601f016020900482015b828111156200096657825482559160010191906001019062000949565b5b5090506200097691906200097a565b5090565b6200099f91905b808211156200099b57600081600090555060010162000981565b5090565b90565b610cfd80620009b26000396000f3fe60806040526004361061006d576000357c0100000000000000000000000000000000000000000000000000000000900463ffffffff1680632489f7f714610072578063a87430ba1461009d578063b6f705541461014e578063cff3212c146101ab578063d574ea3d14610287575b600080fd5b34801561007e57600080fd5b5061008761038e565b6040518082815260200191505060405180910390f35b3480156100a957600080fd5b506100ec600480360360208110156100c057600080fd5b81019080803573ffffffffffffffffffffffffffffffffffffffff169060200190929190505050610394565b604051808681526020018581526020018481526020018373ffffffffffffffffffffffffffffffffffffffff1673ffffffffffffffffffffffffffffffffffffffff168152602001821515151581526020019550505050505060405180910390f35b34801561015a57600080fd5b506101916004803603604081101561017157600080fd5b8101908080359060200190929190803590602001909291905050506103f7565b604051808215151515815260200191505060405180910390f35b3480156101b757600080fd5b50610285600480360360608110156101ce57600080fd5b81019080803590602001906401000000008111156101eb57600080fd5b8201836020820111156101fd57600080fd5b8035906020019184600183028401116401000000008311171561021f57600080fd5b91908080601f016020809104026020016040519081016040528093929190818152602001838380828437600081840152601f19601f8201169050808301925050505050505091929192908035906020019092919080359060200190929190505050610616565b005b34801561029357600080fd5b506102c0600480360360208110156102aa57600080fd5b810190808035906020019092919050505061062d565b60405180878152602001806020018681526020018573ffffffffffffffffffffffffffffffffffffffff1673ffffffffffffffffffffffffffffffffffffffff16815260200184815260200183151515158152602001828103825287818151815260200191508051906020019080838360005b8381101561034e578082015181840152602081019050610333565b50505050905090810190601f16801561037b5780820380516001836020036101000a031916815260200191505b5097505050505050505060405180910390f35b60025481565b60006020528060005260406000206000915090508060000154908060010154908060020154908060030160009054906101000a900473ffffffffffffffffffffffffffffffffffffffff16908060030160149054906101000a900460ff16905085565b60006001600083815260200190815260200160002060050160009054906101000a900460ff1615151561042657fe5b600033905061045781857fffffffffffffffffffffffffffffffffffffffffffffffffffffffffffffffff0261072e565b1515610467576000915050610610565b61046f610b56565b6001600085815260200190815260200160002060c0604051908101604052908160008201548152602001600182018054600181600116156101000203166002900480601f0160208091040260200160405190810160405280929190818152602001828054600181600116156101000203166002900480156105315780601f1061050657610100808354040283529160200191610531565b820191906000526020600020905b81548152906001019060200180831161051457829003601f168201915b50505050508152602001600282015481526020016003820160009054906101000a900473ffffffffffffffffffffffffffffffffffffffff1673ffffffffffffffffffffffffffffffffffffffff1673ffffffffffffffffffffffffffffffffffffffff168152602001600482015481526020016005820160009054906101000a900460ff16151515158152505090506000858260800151029050858113156105fd57600082606001519050600083604001518884030290506105f4828261072e565b50808303925050505b610607838261072e565b50600193505050505b92915050565b600033905061062781858585610824565b50505050565b6001602052806000526040600020600091509050806000015490806001018054600181600116156101000203166002900480601f0160208091040260200160405190810160405280929190818152602001828054600181600116156101000203166002900480156106df5780601f106106b4576101008083540402835291602001916106df565b820191906000526020600020905b8154815290600101906020018083116106c257829003601f168201915b5050505050908060020154908060030160009054906101000a900473ffffffffffffffffffffffffffffffffffffffff16908060040154908060050160009054906101000a900460ff16905086565b6000808212801561078257506000826000808673ffffffffffffffffffffffffffffffffffffffff1673ffffffffffffffffffffffffffffffffffffffff1681526020019081526020016000206000015401125b15610790576000905061081e565b816000808573ffffffffffffffffffffffffffffffffffffffff1673ffffffffffffffffffffffffffffffffffffffff16815260200190815260200160002060000154016000808573ffffffffffffffffffffffffffffffffffffffff1673ffffffffffffffffffffffffffffffffffffffff16815260200190815260200160002060000181905550600190505b92915050565b60008060008673ffffffffffffffffffffffffffffffffffffffff1673ffffffffffffffffffffffffffffffffffffffff16815260200190815260200160002060010154905060c0604051908101604052808281526020018581526020018481526020018673ffffffffffffffffffffffffffffffffffffffff168152602001838152602001600115158152506000808773ffffffffffffffffffffffffffffffffffffffff1673ffffffffffffffffffffffffffffffffffffffff1681526020019081526020016000206004016000838152602001908152602001600020600082015181600001556020820151816001019080519060200190610929929190610ba5565b506040820151816002015560608201518160030160006101000a81548173ffffffffffffffffffffffffffffffffffffffff021916908373ffffffffffffffffffffffffffffffffffffffff1602179055506080820151816004015560a08201518160050160006101000a81548160ff0219169083151502179055509050506000808673ffffffffffffffffffffffffffffffffffffffff1673ffffffffffffffffffffffffffffffffffffffff16815260200190815260200160002060040160008281526020019081526020016000206001600060025481526020019081526020016000206000820154816000015560018201816001019080546001816001161561010002031660029004610a40929190610c25565b50600282015481600201556003820160009054906101000a900473ffffffffffffffffffffffffffffffffffffffff168160030160006101000a81548173ffffffffffffffffffffffffffffffffffffffff021916908373ffffffffffffffffffffffffffffffffffffffff160217905550600482015481600401556005820160009054906101000a900460ff168160050160006101000a81548160ff0219169083151502179055509050506000808673ffffffffffffffffffffffffffffffffffffffff1673ffffffffffffffffffffffffffffffffffffffff168152602001908152602001600020600101600081548092919060010191905055506002600081548092919060010191905055505050505050565b60c060405190810160405280600081526020016060815260200160008152602001600073ffffffffffffffffffffffffffffffffffffffff168152602001600081526020016000151581525090565b828054600181600116156101000203166002900490600052602060002090601f016020900481019282601f10610be657805160ff1916838001178555610c14565b82800160010185558215610c14579182015b82811115610c13578251825591602001919060010190610bf8565b5b509050610c219190610cac565b5090565b828054600181600116156101000203166002900490600052602060002090601f016020900481019282601f10610c5e5780548555610c9b565b82800160010185558215610c9b57600052602060002091601f016020900482015b82811115610c9a578254825591600101919060010190610c7f565b5b509050610ca89190610cac565b5090565b610cce91905b80821115610cca576000816000905550600101610cb2565b5090565b9056fea165627a7a723058209522ed3f13c074a540a610f6fe6c9bd9dba554acd70d8efce0bc8730bdd7c9590029",
  "source": "pragma solidity ^0.5.0;\n\ncontract StrategyInvestment{\n\tstruct Strategy{\n\t\tuint IDinUser;\n\t\t// the strategy owner will get dividendRate * income if income > 0.\n\t\tstring Name;\n\t\tint dividendRate;\n\t\taddress ownerAddress;\n\t\tint indicates; // simplfy it\n\t\tbool isValid;\n\t}\n\tstruct User{\n\t\t// 拥有的虚拟货币\n\t\tint holdCurrency;\n\t\tuint strategiesCount;\n\t\tuint validSCount;\n\t\t// 不知道需不需要Hash\n\t\taddress userAddress;\n\t\tbool isValid;\n\n\t\tmapping(uint => Strategy) strategies;\n\t}\n\tmapping (address => User) public users;\n\tmapping (uint => Strategy) public strategies;\n\tuint public strategiesCount;\n\t/*构造函数*/\n\tconstructor() public{\n\t\t_init();\n\t\tif(!users[msg.sender].isValid){\n\t\t\t_addUser(msg.sender);\n\t\t}\n\t}\n\n\tfunction _init() private{\n\t\t/*add two users*/\n\t\taddress addr_index07 = 0x8473dB8d4106e66158673dE19C290E4516250dDc;\n\t\taddress addr_index03 = 0x73Ea460Ae904C3f0496f02Eea271eCeBd2fB0490;\n\t\t_addUser(addr_index03);\n\t\t_addUser(addr_index07);\n\n\t\tstring memory name1 = \"strategy1\";\n\t\tstring memory name2 = \"strategy2\";\n\t\tstring memory name3 = \"Li Haoyang的超级无敌宇宙策略\";\n\n\t\t_addStrategy(addr_index07,name1,5,3);\n\t\t_addStrategy(addr_index07,name2,5,122);\n\t\t_addStrategy(addr_index03,name3,3,7);\n\t}\n\n\tfunction _addUser(address _addr) private returns(bool){\n\t\t// is exist\n\t\tif(users[_addr].isValid) return false;\n\n\t\tUser memory newUser;\n\t\t// newUser.holdCurrency;\n\t\tnewUser.userAddress = _addr;\n\t\tusers[_addr] = newUser;\n\t\tusers[_addr].holdCurrency = 0;\n\t\tusers[_addr].strategiesCount = 0;\n\t\tusers[_addr].validSCount = 0;\n\t\tusers[_addr].isValid = true;\n\n\t\treturn true;\n\t}\n\tfunction _operateUserCurrency(address userAddress, int opeN) private returns(bool){\n\t\tif(opeN < 0 && users[userAddress].holdCurrency + opeN < 0){\n\t\t\treturn false;\n\t\t}\n\t\tusers[userAddress].holdCurrency = users[userAddress].holdCurrency + opeN;\n\t\treturn true;\n\t}\n\n\tfunction addStrategy(string memory _sName,int _dRate,int indicates) public{\n\t\taddress addr = msg.sender;\n\t\t_addStrategy(addr,_sName,_dRate,indicates);\n\t}\n\tfunction _addStrategy(address addr,string memory _sName,int _dRate,int indicates) private{\n\t\t// usersCount++;\n\t\tuint id = users[addr].strategiesCount;\n\t\tusers[addr].strategies[id] = Strategy(id,_sName,_dRate,addr,indicates,true);\n\t\t\n\t\tstrategies[strategiesCount] = users[addr].strategies[id];\n\n\t\tusers[addr].strategiesCount++;\n\t\tstrategiesCount++;\n\t}\n\n\tfunction investigate(int principal, uint sCount) public returns(bool){\n\t\t/*\n\t\t\tprincipal: investment principal\n\t\t\tsCount: strategiesCount\n\t\t*/\n\t\tassert(!strategies[sCount].isValid);\n\n\t\taddress addrB = msg.sender;\n\t\t// 余额不足\n\t\tif(!_operateUserCurrency(addrB,-1 * principal)) return false;\n\t\tStrategy memory cSt = strategies[sCount];\n\n\t\t/*investment*/\n\t\t// uint rate = cSt.indicates * \n\t\tint totalIcome = cSt.indicates *  principal; //* random num\n\n\t\tif(totalIcome > principal){\n\t\t\taddress addrA = cSt.ownerAddress;\n\t\t\t// 分红\n\t\t\tint developerDividend = (totalIcome - principal) * cSt.dividendRate;\n\t\t\t_operateUserCurrency(addrA,developerDividend);\n\n\t\t\ttotalIcome = totalIcome - developerDividend;\n\t\t}\n\t\t// B 获得本金 + 利息\n\t\t_operateUserCurrency(addrB,totalIcome);\n\t\treturn true;\n\t}\n}",
  "sourcePath": "/Users/haomao/Documents/Git/Backtest-with-blockChain/backtest/contracts/StrategyInvestment.sol",
  "compiler": {
    "name": "solc",
    "version": "0.5.0+commit.1d4f565a.Emscripten.clang"
  },
  "schemaVersion": "3.0.8",
  "updatedAt": "2019-04-30T13:30:25.836Z",
  "devdoc": {
    "methods": {}
  },
  "userdoc": {
    "methods": {}
  }
}