{
  "contractName": "StrategyInvestment",
  "abi": [
    {
      "constant": true,
      "inputs": [],
      "name": "strategiesCount",
      "outputs": [
        {
          "name": "",
          "type": "uint256"
        }
      ],
      "payable": false,
      "stateMutability": "view",
      "type": "function",
      "signature": "0x2489f7f7"
    },
    {
      "constant": true,
      "inputs": [
        {
          "name": "",
          "type": "address"
        }
      ],
      "name": "users",
      "outputs": [
        {
          "name": "username",
          "type": "bytes32"
        },
        {
          "name": "holdCurrency",
          "type": "int256"
        },
        {
          "name": "strategiesCount",
          "type": "uint256"
        },
        {
          "name": "validSCount",
          "type": "uint256"
        },
        {
          "name": "userAddress",
          "type": "address"
        },
        {
          "name": "isValid",
          "type": "bool"
        }
      ],
      "payable": false,
      "stateMutability": "view",
      "type": "function",
      "signature": "0xa87430ba"
    },
    {
      "constant": true,
      "inputs": [
        {
          "name": "",
          "type": "bytes32"
        }
      ],
      "name": "usersname_to_address",
      "outputs": [
        {
          "name": "",
          "type": "address"
        }
      ],
      "payable": false,
      "stateMutability": "view",
      "type": "function",
      "signature": "0xab19448d"
    },
    {
      "constant": true,
      "inputs": [
        {
          "name": "",
          "type": "uint256"
        }
      ],
      "name": "strategies",
      "outputs": [
        {
          "name": "ID",
          "type": "uint256"
        },
        {
          "name": "IDinUser",
          "type": "uint256"
        },
        {
          "name": "Name",
          "type": "string"
        },
        {
          "name": "dividendRate",
          "type": "int256"
        },
        {
          "name": "ownerAddress",
          "type": "address"
        },
        {
          "name": "ownerName",
          "type": "bytes32"
        },
        {
          "name": "daily_return",
          "type": "int256"
        },
        {
          "name": "sharpe_ratio",
          "type": "int256"
        },
        {
          "name": "maximum_draw_down",
          "type": "int256"
        },
        {
          "name": "isValid",
          "type": "bool"
        },
        {
          "name": "trCount",
          "type": "uint256"
        }
      ],
      "payable": false,
      "stateMutability": "view",
      "type": "function",
      "signature": "0xd574ea3d"
    },
    {
      "inputs": [],
      "payable": false,
      "stateMutability": "nonpayable",
      "type": "constructor",
      "signature": "constructor"
    },
    {
      "constant": false,
      "inputs": [
        {
          "name": "x",
          "type": "bytes32"
        },
        {
          "name": "_dRate",
          "type": "int256"
        },
        {
          "name": "in1",
          "type": "int256"
        },
        {
          "name": "in2",
          "type": "int256"
        },
        {
          "name": "in3",
          "type": "int256"
        }
      ],
      "name": "bytes32ToString",
      "outputs": [
        {
          "name": "",
          "type": "string"
        }
      ],
      "payable": false,
      "stateMutability": "nonpayable",
      "type": "function",
      "signature": "0x37eb9874"
    },
    {
      "constant": false,
      "inputs": [
        {
          "name": "_sName",
          "type": "string"
        },
        {
          "name": "_dRate",
          "type": "int256"
        },
        {
          "name": "in1",
          "type": "int256"
        },
        {
          "name": "in2",
          "type": "int256"
        },
        {
          "name": "in3",
          "type": "int256"
        }
      ],
      "name": "addStrategy",
      "outputs": [
        {
          "name": "",
          "type": "int256"
        }
      ],
      "payable": false,
      "stateMutability": "nonpayable",
      "type": "function",
      "signature": "0x0a954656"
    },
    {
      "constant": false,
      "inputs": [
        {
          "name": "principal",
          "type": "int256"
        },
        {
          "name": "sCount",
          "type": "uint256"
        }
      ],
      "name": "getRandomNum",
      "outputs": [
        {
          "name": "",
          "type": "int256"
        }
      ],
      "payable": false,
      "stateMutability": "nonpayable",
      "type": "function",
      "signature": "0x988dad7c"
    },
    {
      "constant": false,
      "inputs": [
        {
          "name": "principal",
          "type": "int256"
        },
        {
          "name": "sCount",
          "type": "uint256"
        }
      ],
      "name": "invest",
      "outputs": [],
      "payable": false,
      "stateMutability": "nonpayable",
      "type": "function",
      "signature": "0xaab55e4b"
    }
  ],
  "bytecode": "0x608060405260016000553480156200001657600080fd5b506200003062000036640100000000026401000000009004565b6200088b565b6000738473db8d4106e66158673de19c290e4516250ddc905060007373ea460ae904c3f0496f02eea271ecebd2fb0490905060007fe99381e6b0910000000000000000000000000000000000000000000000000000905060007fe9bb84e99ba8e4bc9e00000000000000000000000000000000000000000000009050620000cd838362000230640100000000026401000000009004565b50620000e9848262000230640100000000026401000000009004565b5060606040805190810160405280600981526020017f7374726174656779310000000000000000000000000000000000000000000000815250905060606040805190810160405280601f81526020017f57414e472059557869616e207320696e636f6d696e6720737472617465677900815250905060608060405190810160405280602581526020017f4c692048616f79616e67e79a84e8b685e7baa7e697a0e6958ce5ae87e5ae99e781526020017fad96e795a50000000000000000000000000000000000000000000000000000008152509050620001e187846005600160026003620004ea640100000000026401000000009004565b6200020487836005600160026003620004ea640100000000026401000000009004565b620002278682600a600160026003620004ea640100000000026401000000009004565b50505050505050565b6000600260008473ffffffffffffffffffffffffffffffffffffffff1673ffffffffffffffffffffffffffffffffffffffff16815260200190815260200160002060040160149054906101000a900460ff1615620002925760009050620004e4565b81600260008573ffffffffffffffffffffffffffffffffffffffff1673ffffffffffffffffffffffffffffffffffffffff1681526020019081526020016000206000018190555082600260008573ffffffffffffffffffffffffffffffffffffffff1673ffffffffffffffffffffffffffffffffffffffff16815260200190815260200160002060040160006101000a81548173ffffffffffffffffffffffffffffffffffffffff021916908373ffffffffffffffffffffffffffffffffffffffff1602179055506064600260008573ffffffffffffffffffffffffffffffffffffffff1673ffffffffffffffffffffffffffffffffffffffff168152602001908152602001600020600101819055506000600260008573ffffffffffffffffffffffffffffffffffffffff1673ffffffffffffffffffffffffffffffffffffffff168152602001908152602001600020600201819055506000600260008573ffffffffffffffffffffffffffffffffffffffff1673ffffffffffffffffffffffffffffffffffffffff168152602001908152602001600020600301819055506001600260008573ffffffffffffffffffffffffffffffffffffffff1673ffffffffffffffffffffffffffffffffffffffff16815260200190815260200160002060040160146101000a81548160ff021916908315150217905550826001600084815260200190815260200160002060006101000a81548173ffffffffffffffffffffffffffffffffffffffff021916908373ffffffffffffffffffffffffffffffffffffffff160217905550600190505b92915050565b6000600260008873ffffffffffffffffffffffffffffffffffffffff1673ffffffffffffffffffffffffffffffffffffffff1681526020019081526020016000206002015490506004546003600060045481526020019081526020016000206000018190555080600360006004548152602001908152602001600020600101819055508560036000600454815260200190815260200160002060020190805190602001906200059b929190620007dc565b5084600360006004548152602001908152602001600020600301819055508660036000600454815260200190815260200160002060040160006101000a81548173ffffffffffffffffffffffffffffffffffffffff021916908373ffffffffffffffffffffffffffffffffffffffff160217905550836003600060045481526020019081526020016000206006018190555082600360006004548152602001908152602001600020600701819055508160036000600454815260200190815260200160002060080181905550600160036000600454815260200190815260200160002060090160006101000a81548160ff0219169083151502179055506000600360006004548152602001908152602001600020600a0181905550600260008873ffffffffffffffffffffffffffffffffffffffff1673ffffffffffffffffffffffffffffffffffffffff1681526020019081526020016000206000015460036000600454815260200190815260200160002060050181905550600454600260008973ffffffffffffffffffffffffffffffffffffffff1673ffffffffffffffffffffffffffffffffffffffff168152602001908152602001600020600501600083815260200190815260200160002081905550600260008873ffffffffffffffffffffffffffffffffffffffff1673ffffffffffffffffffffffffffffffffffffffff1681526020019081526020016000206002016000815480929190600101919050555060046000815480929190600101919050555050505050505050565b828054600181600116156101000203166002900490600052602060002090601f016020900481019282601f106200081f57805160ff191683800117855562000850565b8280016001018555821562000850579182015b828111156200084f57825182559160200191906001019062000832565b5b5090506200085f919062000863565b5090565b6200088891905b80821115620008845760008160009055506001016200086a565b5090565b90565b610f43806200089b6000396000f3fe60806040526004361061008e576000357c0100000000000000000000000000000000000000000000000000000000900463ffffffff1680630a954656146100935780632489f7f71461018357806325b814f4146101ae5780639201de55146101d9578063a87430ba1461028d578063aab55e4b14610345578063ab19448d1461038a578063d574ea3d14610405575b600080fd5b34801561009f57600080fd5b50610181600480360360a08110156100b657600080fd5b81019080803590602001906401000000008111156100d357600080fd5b8201836020820111156100e557600080fd5b8035906020019184600183028401116401000000008311171561010757600080fd5b91908080601f016020809104026020016040519081016040528093929190818152602001838380828437600081840152601f19601f8201169050808301925050505050505091929192908035906020019092919080359060200190929190803590602001909291908035906020019092919050505061052f565b005b34801561018f57600080fd5b5061019861054a565b6040518082815260200191505060405180910390f35b3480156101ba57600080fd5b506101c3610550565b6040518082815260200191505060405180910390f35b3480156101e557600080fd5b50610212600480360360208110156101fc57600080fd5b81019080803590602001909291905050506105fa565b6040518080602001828103825283818151815260200191508051906020019080838360005b83811015610252578082015181840152602081019050610237565b50505050905090810190601f16801561027f5780820380516001836020036101000a031916815260200191505b509250505060405180910390f35b34801561029957600080fd5b506102dc600480360360208110156102b057600080fd5b81019080803573ffffffffffffffffffffffffffffffffffffffff1690602001909291905050506107f7565b604051808781526020018681526020018581526020018481526020018373ffffffffffffffffffffffffffffffffffffffff1673ffffffffffffffffffffffffffffffffffffffff16815260200182151515158152602001965050505050505060405180910390f35b34801561035157600080fd5b506103886004803603604081101561036857600080fd5b810190808035906020019092919080359060200190929190505050610860565b005b34801561039657600080fd5b506103c3600480360360208110156103ad57600080fd5b81019080803590602001909291905050506109a1565b604051808273ffffffffffffffffffffffffffffffffffffffff1673ffffffffffffffffffffffffffffffffffffffff16815260200191505060405180910390f35b34801561041157600080fd5b5061043e6004803603602081101561042857600080fd5b81019080803590602001909291905050506109d4565b604051808c81526020018b8152602001806020018a81526020018973ffffffffffffffffffffffffffffffffffffffff1673ffffffffffffffffffffffffffffffffffffffff1681526020018881526020018781526020018681526020018581526020018415151515815260200183815260200182810382528b818151815260200191508051906020019080838360005b838110156104ea5780820151818401526020810190506104cf565b50505050905090810190601f1680156105175780820380516001836020036101000a031916815260200191505b509c5050505050505050505050505060405180910390f35b6000339050610542818787878787610af3565b505050505050565b60045481565b60008060644233600054604051602001808481526020018373ffffffffffffffffffffffffffffffffffffffff1673ffffffffffffffffffffffffffffffffffffffff166c01000000000000000000000000028152601401828152602001935050505060405160208183030381529060405280519060200120600190048115156105d657fe5b0790506276adf16001600054018115156105ec57fe5b076000819055508091505090565b60608060206040519080825280601f01601f1916602001820160405280156106315781602001600182028038833980820191505090505b509050600080905060008090505b60208110156107005760008160080260020a866001900402600102905060007f010000000000000000000000000000000000000000000000000000000000000002817effffffffffffffffffffffffffffffffffffffffffffffffffffffffffffff19161415156106f2578084848151811015156106b957fe5b9060200101907effffffffffffffffffffffffffffffffffffffffffffffffffffffffffffff1916908160001a90535082806001019350505b50808060010191505061063f565b506060816040519080825280601f01601f1916602001820160405280156107365781602001600182028038833980820191505090505b50905060008090505b828110156107eb57838181518110151561075557fe5b9060200101517f010000000000000000000000000000000000000000000000000000000000000090047f01000000000000000000000000000000000000000000000000000000000000000282828151811015156107ae57fe5b9060200101907effffffffffffffffffffffffffffffffffffffffffffffffffffffffffffff1916908160001a905350808060010191505061073f565b50809350505050919050565b60026020528060005260406000206000915090508060000154908060010154908060020154908060030154908060040160009054906101000a900473ffffffffffffffffffffffffffffffffffffffff16908060040160149054906101000a900460ff16905086565b60006003600083815260200190815260200160002060040160009054906101000a900473ffffffffffffffffffffffffffffffffffffffff169050600033905060006108aa610550565b9050600085905060008213156109445760648683028115156108c857fe5b0591508273ffffffffffffffffffffffffffffffffffffffff168473ffffffffffffffffffffffffffffffffffffffff1614151561093f57600060036000878152602001908152602001600020600301548302905060648181151561092957fe5b0590508083830103915061093d8582610de3565b505b61098f565b606486837fffffffffffffffffffffffffffffffffffffffffffffffffffffffffffffffff020281151561097457fe5b05915085821315610988576000905061098e565b81810390505b5b6109998382610de3565b505050505050565b60016020528060005260406000206000915054906101000a900473ffffffffffffffffffffffffffffffffffffffff1681565b6003602052806000526040600020600091509050806000015490806001015490806002018054600181600116156101000203166002900480601f016020809104026020016040519081016040528092919081815260200182805460018160011615610100020316600290048015610a8c5780601f10610a6157610100808354040283529160200191610a8c565b820191906000526020600020905b815481529060010190602001808311610a6f57829003601f168201915b5050505050908060030154908060040160009054906101000a900473ffffffffffffffffffffffffffffffffffffffff16908060050154908060060154908060070154908060080154908060090160009054906101000a900460ff169080600a015490508b565b6000600260008873ffffffffffffffffffffffffffffffffffffffff1673ffffffffffffffffffffffffffffffffffffffff168152602001908152602001600020600201549050600454600360006004548152602001908152602001600020600001819055508060036000600454815260200190815260200160002060010181905550856003600060045481526020019081526020016000206002019080519060200190610ba2929190610e72565b5084600360006004548152602001908152602001600020600301819055508660036000600454815260200190815260200160002060040160006101000a81548173ffffffffffffffffffffffffffffffffffffffff021916908373ffffffffffffffffffffffffffffffffffffffff160217905550836003600060045481526020019081526020016000206006018190555082600360006004548152602001908152602001600020600701819055508160036000600454815260200190815260200160002060080181905550600160036000600454815260200190815260200160002060090160006101000a81548160ff0219169083151502179055506000600360006004548152602001908152602001600020600a0181905550600260008873ffffffffffffffffffffffffffffffffffffffff1673ffffffffffffffffffffffffffffffffffffffff1681526020019081526020016000206000015460036000600454815260200190815260200160002060050181905550600454600260008973ffffffffffffffffffffffffffffffffffffffff1673ffffffffffffffffffffffffffffffffffffffff168152602001908152602001600020600501600083815260200190815260200160002081905550600260008873ffffffffffffffffffffffffffffffffffffffff1673ffffffffffffffffffffffffffffffffffffffff1681526020019081526020016000206002016000815480929190600101919050555060046000815480929190600101919050555050505050505050565b80600260008473ffffffffffffffffffffffffffffffffffffffff1673ffffffffffffffffffffffffffffffffffffffff1681526020019081526020016000206001015401600260008473ffffffffffffffffffffffffffffffffffffffff1673ffffffffffffffffffffffffffffffffffffffff168152602001908152602001600020600101819055505050565b828054600181600116156101000203166002900490600052602060002090601f016020900481019282601f10610eb357805160ff1916838001178555610ee1565b82800160010185558215610ee1579182015b82811115610ee0578251825591602001919060010190610ec5565b5b509050610eee9190610ef2565b5090565b610f1491905b80821115610f10576000816000905550600101610ef8565b5090565b9056fea165627a7a72305820062d81f02662b9806948844ef311426aa66b695f1c1198a94c809276ecd7fa600029",
  "source": "pragma solidity ^0.5.0;\n\n\ncontract StrategyInvestment{\n\n\tstruct Transcation{\n\t\taddress fromAddr;\n\t\taddress toAddr;\n\t\tuint256 tDate;\n\t\tint investResult;\n\t}\n\t// struct Indicates{\n\t// \tint daily_return;\n\t// \tint sharpe_ratio;\n\t// \tint maximum;\n\t// \tint draw_down;\n\t// }\n\n\tstruct Strategy{\n\t\tuint ID;\n\t\tuint IDinUser;\n\t\t// the strategy owner will get dividendRate * income if income > 0.\n\t\tstring Name;\n\t\tint dividendRate;\n\t\taddress ownerAddress;\n\t\tbytes32 ownerName;\n\t\t// int indicates; // simplfy it\n\t\t\n\t\t//indicates;index 6 ,7 ,8\n\t\tint daily_return;\n\t\tint sharpe_ratio;\n\t\tint maximum_draw_down;\n\n\n\t\tbool isValid;\n\t\tuint trCount;\n\t\tmapping(uint => Transcation) transcations;\n\t}\n\tstruct User{\n\t\t// 拥有的虚拟货币\n\t\tbytes32 username;\n\t\tint holdCurrency;\n\t\tuint strategiesCount;\n\t\tuint validSCount;\n\t\t// 不知道需不需要Hash\n\t\taddress userAddress;\n\t\tbool isValid;\n\n\t\tmapping(uint => uint) strategies_ids;\n\t}\n\tint nonce = 1;\n\t// mapping (uint => int) public randomNums;\n\t// uint public randomCount;\n\n\n\tmapping (bytes32 => address) public usersname_to_address; \n\tmapping (address => User) public users;\n\tmapping (uint => Strategy) public strategies;\n\tuint public strategiesCount;\n\n\t/*构造函数*/\n\tconstructor() public{\n\t\t_init();\n\t\t// require(users[msg.sender].isValid);\n\t\t// if(!users[msg.sender].isValid){\n\t\t// \t_addUser(msg.sender);\n\t\t// }\n\t}\n\n\tfunction bytes32ToString(bytes32 x) public returns (string memory) {\n\t    bytes memory bytesString = new bytes(32);\n\t    uint charCount = 0;\n\t    for (uint j = 0; j < 32; j++) {\n\t        byte char = byte(bytes32(uint(x) * 2 ** (8 * j)));\n\t        if (char != 0) {\n\t            bytesString[charCount] = char;\n\t            charCount++;\n\t        }\n\t    }\n\t    bytes memory bytesStringTrimmed = new bytes(charCount);\n\t    for (uint j = 0; j < charCount; j++) {\n\t        bytesStringTrimmed[j] = bytesString[j];\n\t    }\n\t    return string(bytesStringTrimmed);\n\t}\n\n\t// function convertingToString(bytes32 hw)public returns(string memory){\n\t// \t// bytes32 memory hw = \"Hello World\";\n\t// \tstring memory converted = string(hw);\n\t// \treturn converted;\n\t// }\n\n\tfunction _init() private{\n\t\t/*add two users*/\n\t\taddress addr_index07 = 0x8473dB8d4106e66158673dE19C290E4516250dDc;\n\t\taddress addr_index03 = 0x73Ea460Ae904C3f0496f02Eea271eCeBd2fB0490;\n\t\t\n\t\tbytes32 user_name1 = \"铁民\";\n\t\tbytes32 user_name2 = \"黄雨伞\";\n\n\n\t\t_addUser(addr_index03,user_name1);\n\t\t_addUser(addr_index07,user_name2);\n\n\t\tstring memory name1 = \"strategy1\";\n\t\tstring memory name2 = \"WANG YUxian s incoming strategy\";\n\t\tstring memory name3 = \"Li Haoyang的超级无敌宇宙策略\";\n\n\t\t\n\t\t_addStrategy(addr_index07,name1,5,1,2,3);\n\t\t_addStrategy(addr_index07,name2,5,1,2,3);\n\t\t_addStrategy(addr_index03,name3,10,1,2,3);\n\t}\n\n\tfunction _addUser(address _addr, bytes32 _uname) private returns(bool){\n\t\t// is exist\n\t\tif(users[_addr].isValid) return false;\n\t\tusers[_addr].username = _uname;\n\t\tusers[_addr].userAddress = _addr;\n\t\tusers[_addr].holdCurrency = 100; // 100.00 actually\n\t\tusers[_addr].strategiesCount = 0;\n\t\tusers[_addr].validSCount = 0;\n\t\tusers[_addr].isValid = true;\n\n\t\tusersname_to_address[_uname] = _addr;\n\n\t\treturn true;\n\t}\n\tfunction _operateUserCurrency(address userAddress, int opeN) private{\n\t\t// if(opeN < 0 && users[userAddress].holdCurrency + opeN < 0){\n\t\t// \treturn false;\n\t\t// }\n\t\tusers[userAddress].holdCurrency = users[userAddress].holdCurrency + opeN;\n\t\t// return true;\n\t}\n\n\tfunction addStrategy(string memory _sName,int _dRate,int in1,int in2,int in3) public{\n\t\taddress addr = msg.sender;\n\t\t_addStrategy(addr,_sName,_dRate, in1, in2, in3);\n\t}\n\tfunction _addStrategy(address addr,string memory _sName,int _dRate,int in1,int in2,int in3) private{\n\t\t// usersCount++;\n\t\tuint id = users[addr].strategiesCount;\n\n\t\tstrategies[strategiesCount].ID = strategiesCount;\n\t\tstrategies[strategiesCount].IDinUser = id;\n\t\t// the strategy owner will get dividendRate * income if income > 0.\n\t\tstrategies[strategiesCount].Name = _sName;\n\t\tstrategies[strategiesCount].dividendRate = _dRate;\n\t\tstrategies[strategiesCount].ownerAddress = addr;\n\n\n\t\tstrategies[strategiesCount].daily_return = in1; // simplfy it\n\t\tstrategies[strategiesCount].sharpe_ratio = in2; // simplfy it\n\t\tstrategies[strategiesCount].maximum_draw_down = in3; // simplfy it\n\n\n\n\t\tstrategies[strategiesCount].isValid = true;\n\t\tstrategies[strategiesCount].trCount = 0;\n\n\t\tstrategies[strategiesCount].ownerName = users[addr].username;\n\n\n\t\tusers[addr].strategies_ids[id] = strategiesCount;\n\t\tusers[addr].strategiesCount++;\n\t\tstrategiesCount++;\n\t}\n\tfunction _addTranscation(address fromAddr, address toAddr, int res, uint sId) private{\n\t\t\n\t\tuint trId = strategies[sId].trCount;\n\n\t\tstrategies[sId].transcations[trId].fromAddr = fromAddr;\n\t\tstrategies[sId].transcations[trId].toAddr = toAddr;\n\t\tstrategies[sId].transcations[trId].tDate = now;\n\t\tstrategies[sId].transcations[trId].investResult = res;\n\n\t}\n\t// function update() public{\n\t// \t/**/\n\t// }\n\tfunction getRandomNum() public returns (int){\n\t\t// uint o1 = 2;\n\t\tint randomnumber = int(keccak256(abi.encodePacked(now, msg.sender, nonce))) % 100;\n\t    // randomNums[randomCount] = randomnumber;\n\t    // randomCount++;\n\t    nonce = (nonce + 1) % 7777777;\n\t    return randomnumber;\n\t}\n\tfunction invest(int principal, uint sCount) public {\n\t\t/*\n\t\t\tprincipal: investment principal\n\t\t\tsCount: strategiesCount\n\t\t*/\n\t\taddress strategyOwner = strategies[sCount].ownerAddress;\n\t\taddress investor = msg.sender;\n\n\t\tint investmentRes = getRandomNum();\n\n\n\t\tint totalIncome = principal;\n\n\t\tif(investmentRes > 0){\n\t\t\tinvestmentRes = (investmentRes *  principal) / 100;\n\t\t\tif(strategyOwner != investor){\n\t\t\t\tint dividendFee = investmentRes * strategies[sCount].dividendRate;\n\t\t\t\tdividendFee = dividendFee / 100;\n\t\t\t\ttotalIncome = totalIncome + investmentRes - dividendFee;\n\t\t\t\t_operateUserCurrency(strategyOwner,dividendFee);\n\t\t\t}\n\t\t}else{\n\t\t\tinvestmentRes = (-1 * investmentRes *  principal) / 100;\n\t\t\tif(investmentRes >  principal){\n\t\t\t\ttotalIncome = 0;\n\t\t\t}else{\n\t\t\t\ttotalIncome = totalIncome - investmentRes;\n\t\t\t}\n\t\t}\n\t\t_operateUserCurrency(investor,totalIncome);\n\t}\n}",
  "sourcePath": "/Users/haomao/Documents/Git/Backtest-with-blockChain/backtest/contracts/StrategyInvestment.sol",
  "compiler": {
    "name": "solc",
    "version": "0.5.0+commit.1d4f565a.Emscripten.clang"
  },
  "schemaVersion": "3.0.8",
  "updatedAt": "2019-05-04T09:37:49.378Z",
  "devdoc": {
    "methods": {}
  },
  "userdoc": {
    "methods": {}
  }
}